{
  "contractName": "Board",
  "abi": [
    {
      "constant": false,
      "inputs": [
        {
          "internalType": "int256",
          "name": "diff",
          "type": "int256"
        },
        {
          "internalType": "string",
          "name": "desc",
          "type": "string"
        }
      ],
      "name": "addTask",
      "outputs": [
        {
          "internalType": "bool",
          "name": "allisgood",
          "type": "bool"
        }
      ],
      "payable": false,
      "stateMutability": "nonpayable",
      "type": "function"
    }
  ],
  "bytecode": "0x608060405260326040519080825280602002602001820160405280156100345781602001602082028038833980820191505090505b506000908051906020019061004a92919061005d565b5034801561005757600080fd5b5061012a565b8280548282559060005260206000209081019282156100d6579160200282015b828111156100d55782518260006101000a81548173ffffffffffffffffffffffffffffffffffffffff021916908373ffffffffffffffffffffffffffffffffffffffff1602179055509160200191906001019061007d565b5b5090506100e391906100e7565b5090565b61012791905b8082111561012357600081816101000a81549073ffffffffffffffffffffffffffffffffffffffff0219169055506001016100ed565b5090565b90565b6104f1806101396000396000f3fe608060405234801561001057600080fd5b506004361061002b5760003560e01c806397bd4e0f14610030575b600080fd5b6100f36004803603604081101561004657600080fd5b81019080803590602001909291908035906020019064010000000081111561006d57600080fd5b82018360208201111561007f57600080fd5b803590602001918460018302840111640100000000831117156100a157600080fd5b91908080601f016020809104026020016040519081016040528093929190818152602001838380828437600081840152601f19601f82011690508083019250505050505050919291929050505061010d565b604051808215151515815260200191505060405180910390f35b60008083833360405161011f90610252565b80848152602001806020018373ffffffffffffffffffffffffffffffffffffffff1673ffffffffffffffffffffffffffffffffffffffff168152602001828103825284818151815260200191508051906020019080838360005b83811015610194578082015181840152602081019050610179565b50505050905090810190601f1680156101c15780820380516001836020036101000a031916815260200191505b50945050505050604051809103906000f0801580156101e4573d6000803e3d6000fd5b5090806001815401808255809150509060018203906000526020600020016000909192909190916101000a81548173ffffffffffffffffffffffffffffffffffffffff021916908373ffffffffffffffffffffffffffffffffffffffff160217905550506001905092915050565b61025d806102608339019056fe608060405234801561001057600080fd5b5060405161025d38038061025d8339818101604052606081101561003357600080fd5b81019080805190602001909291908051604051939291908464010000000082111561005d57600080fd5b8382019150602082018581111561007357600080fd5b825186600182028301116401000000008211171561009057600080fd5b8083526020830192505050908051906020019080838360005b838110156100c45780820151818401526020810190506100a9565b50505050905090810190601f1680156100f15780820380516001836020036101000a031916815260200191505b506040526020018051906020019092919050505082600181905550816002908051906020019061012292919061016c565b5080600360006101000a81548173ffffffffffffffffffffffffffffffffffffffff021916908373ffffffffffffffffffffffffffffffffffffffff160217905550505050610211565b828054600181600116156101000203166002900490600052602060002090601f016020900481019282601f106101ad57805160ff19168380011785556101db565b828001600101855582156101db579182015b828111156101da5782518255916020019190600101906101bf565b5b5090506101e891906101ec565b5090565b61020e91905b8082111561020a5760008160009055506001016101f2565b5090565b90565b603e8061021f6000396000f3fe6080604052600080fdfea265627a7a72315820b86c078c63159e2e36f2010d380be11ce67dc0691712d21c7e6a7daa9418ddca64736f6c63430005100032a265627a7a723158204327c37185c3d7cfb03c3cf01167816d32a59f700ad497f14dd9ca9ff1d98a3064736f6c63430005100032",
  "source": "pragma solidity >=0.4.25 <0.7.0;\r\nimport \"./Task.sol\";\r\n\r\ncontract Board{\r\n  Task[] task = new Task[](50);\r\n\r\n  function addTask(int diff,string memory desc) public returns (bool allisgood){\r\n    task.push(new Task(diff,desc,msg.sender));\r\n    return true;\r\n  }\r\n}",
  "sourcePath": "D:\\Git\\Master\\KanChain\\contracts\\Board.sol",
  "compiler": {
    "name": "solc",
    "version": "0.5.16+commit.9c3226ce.Emscripten.clang"
  },
  "schemaVersion": "3.4.3",
  "updatedAt": "2021-12-08T16:14:59.394Z",
  "devdoc": {
    "methods": {}
  },
  "userdoc": {
    "methods": {}
  }
}